:020000021000EC
:1000B400130101FF9305000023248100232611006E
:1000C40013040500EF00D02F83A781D463840700B5
:1000D400E780070013050400EF10D06493070000C5
:1000E4006388070037250100130505DF6F00904082
:1000F40067800000973100009381817F17350000ED
:100104001305855317460000130686853306A6405B
:1001140093050000EF00101D171500001305C5BD61
:100124006308050017250000130585CCEF00903CFB
:10013400EF00901103250100930541001306000010
:10014400EF00C0066FF0DFF6130101FF23248100E6
:1001540083C741D623261100639207029307000048
:10016400638A0700372501001305450A970000003C
:10017400E7000000930710002382F1D68320C1001A
:10018400032481001301010167800000930700002C
:10019400638C070037250100938581D61305450A32
:1001A400170300006700000067800000130101FDD1
:1001B4002326110223248102130401039305A000C2
:1001C400232EB4FC13051000930500002320A4FE85
:1001D4002322B4FE930510002326B4FE6F00C0054D
:1001E4008325C4FE1387050093D5F5419387050045
:1001F400832544FE3385E502832504FEB385F50299
:100204003305B500832504FE3388E502B3B6E50261
:1002140013060800B305D500938605002320C4FE09
:100224002322D4FE2320C4FE2322D4FE8325C4FE2D
:10023400938515002326B4FE0325C4FE8325C4FD3F
:10024400E3D0A5FA93070000138507008320C102B9
:1002540003248102130101036780000013050000D9
:100264006780000037360100B725010037350100EB
:100274001306060F93854594130505106F0080340B
:1002840083254500130101FF232481002326110047
:10029400938701D8130405006384F500EF10406AC6
:1002A40083258400938781DE6386F50013050400AB
:1002B400EF1000698325C400938701E5638CF50082
:1002C40013050400032481008320C10013010101EC
:1002D4006F1000678320C100032481001301010112
:1002E400678000001305000067800000130101FE11
:1002F400232C8100B7070100138401D8232E110099
:10030400232A91002328210123263101232441019A
:100314001307400093878726130680009305000087
:100324001385C1DD23A4F1D42326E4002320040093
:100334002322040023240400232204062328040087
:10034400232A0400232C0400EF00C079B70701001E
:10035400370A0100B709010037090100B704010099
:10036400130ACA679389096E130989769384C47C36
:10037400938797001306800093050000138541E4DA
:10038400232AF406232044032322340323242403AE
:1003940023269402232E8400232404062326040601
:1003A400232804062326040C232C0406232E0406E7
:1003B40023200408EF000073B70702009387270186
:1003C400138781DE1385C1EA1306800093050000BC
:1003D400232444092326340923282409232A94089E
:1003E400232EF40C2328040C232A040C232C040CA1
:1003F400232A04122320040E2322040E2324040E91
:100404002322E408EF00006E938701E52328440FBC
:10041400232A340F232C240F232E940E8320C1016E
:100424002326F40E032481018324410103290101BD
:100434008329C100032A810013010102678000009F
:1004440083A781D4130101FE23263101232E110039
:10045400232C8100232A91002328210193090500DC
:100464006388070E373901001309090F9304F0FF5D
:1004740083274900032489009387F7FF63D8070083
:100484006F00000813048406638C97060317C400E6
:100494009387F7FFE31807FEB707FFFF938717005B
:1004A400232204062320040023240400232204001E
:1004B40023280400232A0400232C04002326F40008
:1004C40013068000930500001305C405EF00806146
:1004D40023280402232A04022322040423240404D8
:1004E4008320C101130504000324810183244101F5
:1004F400032901018329C10013010102678000005F
:100504000324090063060400130904006FF05FF676
:100514009305C01A13850900EF00904113040500E8
:10052400630C0502930740001305C5002320040053
:100534002322F4002324A4001306001A93050000C8
:10054400EF00405A23208900130904006FF05FF282
:10055400EFF0DFD96FF01FF1232009009307C000EB
:1005640023A0F9006FF0DFF78327450363840700B6
:1005740067800000B707010003A781D49387472849
:10058400232AF502E31607FE6FF05FD667800000AA
:100594006780000037360100B70501001306060F17
:1005A40093850526130500006F00C001373601004E
:1005B400B70501001306060F9385852E1305000069
:1005C4006F004000130101FD23202103232E31017C
:1005D400232C4101232A510123286101232671017F
:1005E400232611022324810223229102130B0500E6
:1005F400938B0500930A0600130A00009309100068
:100604001309F0FF83A44A0003A48A009384F4FF2F
:1006140063C804028357C40063FEF9008317E4002F
:100624009305040013050B0063862701E7800B0084
:10063400336AAA009384F4FF13048406E39C24FD24
:1006440083AA0A00E3900AFC8320C10203248102E6
:1006540083244102032901028329C101832A410120
:10066400032B0101832BC10013050A00032A810116
:100674001301010367800000130101FF232481009B
:10068400138405008395E50023261100EF00C02E96
:1006940063400502832704058320C100B387A700B4
:1006A4002328F4040324810013010101678000005E
:1006B4008357C40037F7FFFF1307F7FFB3F7E700CB
:1006C4008320C1002316F4000324810013010101D7
:1006D4006780000013050000678000008397C50051
:1006E400130101FE232C8100232A910023282101D8
:1006F40023263101232E110013F70710138405005C
:100704001309060093890600930405006310070487
:1007140037F7FFFF1307F7FFB3F7E7008315E4008C
:100724002316F400032481018320C1019386090068
:10073400130609008329C10003290101138504005C
:1007440083244101130101026F0080298395E50090
:100754009306200013060000EF00801B8317C400DB
:100764006FF01FFB130101FF232481001384050094
:100774008395E50023261100EF0080191307F0FF8D
:100784008317C4006302E50237170000B3E7E700EC
:100794008320C1002328A4042316F4000324810029
:1007A400130101016780000037F7FFFF1307F7FF0C
:1007B400B3F7E7008320C1002316F400032481006B
:1007C40013010101678000008395E5006F0040007C
:1007D400130101FF23248100232291001304050047
:1007E400138505002326110023A601D4EF10406FC2
:1007F4009307F0FF630CF5008320C10003248100FC
:1008040083244100130101016780000083A7C1D440
:10081400E38407FE8320C1002320F4000324810025
:1008240083244100130101016780000083A7C1D321
:10083400638EA70C83254504130101FE232A91002E
:10084400232E1100232C81009304050063880504E2
:1008540023282101232631011309000093090008EC
:10086400B387250103A40700630E04009305040065
:100874000324040013850400EF00805CE31804FEE5
:1008840083A5440413094900E31C39FD13850400BE
:10089400EF00005B032901018329C10083A58403C0
:1008A4006386050013850400EF00805903A4040443
:1008B400630C04009305040003240400138504005E
:1008C400EF000058E31804FE83A5C4046386050002
:1008D40013850400EF00C05683A74403638E07000A
:1008E400032481018320C101138504008324410171
:1008F40013010102678007008320C10103248101E1
:100904008324410113010102678000006780000015
:10091400130101FF13870500232481002322910082
:10092400930506001304050013860600130507004B
:100934002326110023A601D4EF10C0619307F0FF12
:10094400630CF5008320C10003248100832441004B
:10095400130101016780000083A7C1D4E38407FE6B
:100964008320C1002320F400032481008324410058
:100974001301010167800000130101FF13870500C3
:10098400232481002322910093050600130405000B
:1009940013860600130507002326110023A601D49D
:1009A400EF10805F9307F0FF630CF5008320C10014
:1009B40003248100832441001301010167800000A6
:1009C40083A7C1D4E38407FE8320C1002320F4005D
:1009D4000324810083244100130101016780000086
:1009E400130101FF138705002324810023229100B2
:1009F400930506001304050013860600130507007B
:100A04002326110023A601D4EF10C0649307F0FF3E
:100A1400630CF5008320C10003248100832441007A
:100A2400130101016780000083A7C1D4E38407FE9A
:100A34008320C1002320F400032481008324410087
:100A44001301010167800000130101FF23248100C9
:100A5400B737010037340100232021019387470E63
:100A64001307440E23261100232291003389E74003
:100A74006382E702135929401304440E93040000CF
:100A8400832704009384140013044400E7800700C0
:100A9400E3E824FFB7370100373401009387C70E1A
:100AA4001307440E3389E740135929406380E70252
:100AB4001304440E93040000832704009384140059
:100AC40013044400E7800700E3E824FF8320C10007
:100AD400032481008324410003290100130101013F
:100AE400678000001303F00013070500637EC30250
:100AF4009377F7006390070A63920508937606FFDD
:100B04001376F600B386E6002320B7002322B7004D
:100B14002324B7002326B70013070701E366D7FE93
:100B24006314060067800000B306C3409396260052
:100B340097020000B38656006780C6002307B700FB
:100B4400A306B7002306B700A305B7002305B70023
:100B5400A304B7002304B700A303B7002303B7001B
:100B6400A302B7002302B700A301B7002301B70013
:100B7400A300B7002300B7006780000093F5F50FCA
:100B840093968500B3E5D50093960501B3E5D500AA
:100B94006FF0DFF69396270097020000B3865600A5
:100BA40093820000E78006FA93800200938707FF90
:100BB4003307F7403306F600E378C3F66FF0DFF34C
:100BC400130101FD232C41012320210303A901D595
:100BD40023261102630C0906232E3101232A510115
:100BE40023286101232671012324810223229102F7
:100BF40023248101130B0500938B05009309F0FF57
:100C0400930A1000832449001384F4FF634204020E
:100C140093942400B304990063840B0483A74410C1
:100C2400638077051304F4FF9384C4FFE31834FF4F
:100C340003248102832441028329C101832A4101BF
:100C4400032B0101832BC100032C81008320C102EB
:100C540003290102032A81011301010367800000B3
:100C64008327490083A644009387F7FF638A870696
:100C740023A20400638606028327891833978A0017
:100C8400032C4900B377F70063940702E78006005A
:100C94000327490083A701D5631E8703639C2703A9
:100CA4001304F4FF9384C4FFE31834F76FF05FF880
:100CB4008327C91883A544083377F700631607020E
:100CC40013050B00E78006000327490083A701D51D
:100CD400E30687FDE38E07F4138907006FF09FF2A4
:100CE400232289006FF01FF913850500E7800600B1
:100CF4006FF01FFA93050500930600001306000029
:100D0400130500006F104014130101FE2326310166
:100D1400B7390100232C8100232A910023282101C3
:100D240023244101232E1100138A05001309050011
:100D340093890922EF00504083A7890037140000EB
:100D44001304F4FE83A44700B717000093F4C4FF10
:100D540033848400330444411354C4001304F4FF63
:100D64001314C400634EF400930500001305090036
:100D7400EF10000283A78900B38797006308F50288
:100D840013050900EF00903B8320C1010324810176
:100D940083244101032901018329C100032A81001D
:100DA400130500001301010267800000B3058040B1
:100DB40013050900EF00D07D9307F0FF6308F504E5
:100DC400938781EB83A6890003A70700B38484403B
:100DD40093E41400130509003307874023A2960007
:100DE40023A0E700EF0090358320C1010324810193
:100DF40083244101032901018329C100032A8100BD
:100E04001305100013010102678000009305000020
:100E140013050900EF00D07703A789009306F000BB
:100E2400B307E540E3DEF6F403A601D493E7170025
:100E34003305C5402322F70023ACA1EA6FF05FF429
:100E440063860512130101FF2324810023229100EC
:100E5400138405009304050023261100EF00D02D10
:100E64000325C4FF130784FFB73501009377E5FF1B
:100E74003306F700938505228326460003A88500E0
:100E84009378150093F6C6FF630CC8182322D60086
:100E94003308D6000328480013781800639C080818
:100EA400032384FF37350100130585223307674088
:100EB40083288700B3876700638EA8120323C700C3
:100EC40023A66800232413016300081A93E617007D
:100ED4002322D7002320F6009306F01F63E4F60ACA
:100EE40093F687FF9386860003A54500B386D50055
:100EF40003A6060013D8570093071000B397070101
:100F0400B3E7A700138586FF2324C7002326A70081
:100F140023A2F50023A0E6002326E6000324810093
:100F24008320C100138504008324410013010101BF
:100F34006F00D020631E080237350100B387D70045
:100F4400130585228326860093E817003308F700EB
:100F54006382A6160326C60023A6C6002324D60051
:100F6400232217012320F8006FF01FF76780000089
:100F740013651500232EA4FE2320F6009306F01F0C
:100F8400E3F0F6F693D69700130640006362D60E9C
:100F940093D66700138596031315350013868603CD
:100FA4003385A50083260500130585FF6318D50046
:100FB4006F00001283A686006308D50003A64600CE
:100FC4001376C6FFE3E8C7FE03A5C6002326A700E1
:100FD4002324D700032481002324E5008320C100B7
:100FE400138504008324410023A6E60013010101B4
:100FF4006F00D0146310080A8325C60003268600F8
:10100400B386F60093E716002326B60023A4C50092
:101014002322F7003307D7002320D7006FF01FF0F7
:10102400B386D70063900802032584FF3307A740E3
:101034008327C70003268700B386A6002326F6006D
:1010440023A4C70013E6160083A741D42322C700B4
:1010540023A4E500E3E4F6EC83A5C1D513850400DD
:10106400EFF09FCA6FF09FEBB387D7006FF09FED4F
:10107400130640016378D602130640056368D6065A
:1010840093D6C7001385F606131535001386E606B6
:101094006FF01FF193E617002322D7002320F600F8
:1010A4006FF0DFE71385C605131535001386B60503
:1010B4006FF01FEF23AAE50023A8E5002326A7006D
:1010C4002324A700232217012320F8006FF01FE533
:1010D40003A845001356264093071000B397C70092
:1010E400B3E7070123A2F5006FF05FEE1306401586
:1010F400636CD60093D6F700138586071315350065
:10110400138676076FF0DFE913064055636CD6004B
:1011140093D627011385D607131535001386C60702
:101124006FF01FE81305803F1306E0076FF05FE7D9
:10113400130101FD232E31012326110223248102F0
:1011440023229102232021039387B5001307600112
:10115400930905006360F7089304000163E4B42075
:10116400EF00807D9307800193052000373901004B
:1011740013090922B307F90003A44700138787FF63
:101184006306E444832744008326C40003268400C2
:1011940093F7C7FFB307F40003A747002326D6003D
:1011A40023A4C600136717001385090023A2E700D0
:1011B400EF00C0788320C102130584000324810258
:1011C40083244102032901028329C101130101037C
:1011D4006780000093F487FF63C6071863E4B418BC
:1011E400EF0080759307701F63FC974E93D79400AC
:1011F400638E0718130740006362F74493D76400B3
:1012040093859703138887031396350037390100B4
:10121400130909223306C90003244600130686FF76
:10122400630886021305F0006F0040018326C400A2
:10123400635C0734630ED6001384060083274400DE
:1012440093F7C7FF33879740E352E5FE9305080001
:101254000324090137380100130888226306042B8C
:10126400832744009306F00093F7C7FF3387974022
:1012740063CEE646232A0901232809016352074461
:101284001307F01F03254900636AF73413F787FF38
:10129400130787003307E9008326070013D6570096
:1012A40093071000B397C7003365F500930787FFD2
:1012B4002324D4002326F4002322A900232087001A
:1012C40023A6860093D72540130610003316F60094
:1012D4006366C50CB377A600639407021316160061
:1012E40093F5C5FFB377A60093854500639A07007D
:1012F40013161600B377A60093854500E38A07FE0C
:101304009308F000139335003303690013050300B9
:101314008327C500138E05006304F53403A7470033
:101324001384070083A7C7001377C7FFB30697404A
:1013340063C4D834E3C206FE3307E40083264700BF
:10134400032684001385090093E616002322D700A0
:101354002326F60023A4C700EF00405E1305840093
:101364006F0000019307C00023A0F90013050000DB
:101374008320C10203248102832441020329010240
:101384008329C101130101036780000013060020B3
:10139400930500041308F0036FF05FE7032489004A
:1013A400232861018327440013FBC7FF63689B0064
:1013B40033079B409307F00063C6E718232291018B
:1013C400232A510103A701D483AAC1D5232C4101A7
:1013D400232671019307F0FFB38A5401330A640191
:1013E400630CF73CB71700009387F700B38AFA0041
:1013F400B7F7FFFFB3FAFA0093850A0013850900D3
:10140400EF0010199307F0FF930B05006308F546EE
:1014140023248101636E450F138C81EB83250C001B
:10142400B385BA002320BC0013870500630EAA44C9
:1014340083A601D49307F0FF6386F646B3874B4136
:10144400B387E7002320FC0093FC7B0063860C3801
:10145400B38B9B41B7150000938B8B00938585005C
:10146400B38A5B01B3859541B38555419395450195
:1014740013DA450193050A0013850900EF005011A2
:101484009307F0FF6300F54633057541B30A450140
:1014940003270C002324790193E71A00B305EA001B
:1014A40023A2FB002320BC00630E24039306F00058
:1014B40063FA66350327440093074BFF93F787FFCE
:1014C400137717003367F7002322E4001306500054
:1014D4003307F4002322C7002324C70063E2F62C59
:1014E40083A74B0083A681D563F4B60023ACB1D4A3
:1014F40083A641D563F4B60023AAB1D4032C81009A
:1015040013840B006F00C001032549006FF09FDBBB
:10151400630C243503248900032C810083274400B1
:1015240093F7C7FF3387974063E4972E9307F00040
:1015340063D0E72E032A8101832A4101832BC10052
:10154400832C410093E714002322F400B304940095
:1015540023249900136717001385090023A2E400CC
:10156400EF00C03D8320C1021305840003248102DF
:10157400032B010183244102032901028329C101B0
:10158400130101036780000003268400B307F400FD
:1015940003A747002326D60023A4C6001367170019
:1015A4001385090023A2E700EF0040398320C1021C
:1015B40013058400032481028324410203290102C8
:1015C4008329C101130101036780000003A4C7003C
:1015D40093852500E38E87C66FF0DFBA13D7970093
:1015E4009306400063F2E6149306400163E2E624A6
:1015F4001306C705131636009306B7053306C9004C
:1016040003270600130686FF6318E6006F00401BDD
:10161400032787006308E6008326470093F6C6FF86
:10162400E3E8D7FE0326C7002326C4002324E400EE
:1016340023248600232687006FF0DFC813074001A8
:10164400637EF70E130740056362F72093D7C40047
:101654009385F7061388E706139635006FF01FBBD2
:10166400130E1E0093773E00130585006386070E54
:101674008327C5006FF05FCA0326840093E5140036
:101684002322B4002326F60023A4C700B304940045
:10169400232A99002328990093E716003307E400CE
:1016A40023A6040123A4040123A2F4001385090042
:1016B4002320D700EF008028130584006FF05FCB50
:1016C400B307F40003A74700138509001367170045
:1016D40023A2E700EF008026130584006FF05FC9A2
:1016E40093D53400938784006FF05FA893E61400C9
:1016F4002322D400B3049400232A990023289900B8
:1017040093661700B307F40023A6040123A404017D
:1017140023A2D4001385090023A0E700EF000022D0
:10172400130584006FF0DFC413D767001306970313
:1017340013163600930687036FF05FEC9385C70595
:101744001388B705139635006FF05FAC83278300C9
:101754009385F5FF639E671C93F73500130383FF9E
:10176400E39607FE032749009347F6FFB3F7E70024
:101774002322F90013161600E3E2C7C2E30006C2EF
:101784003377F600631A0700131616003377F60052
:10179400130E4E00E30A07FE93050E006FF09FB68A
:1017A4009305840013850900EFF08FE983250C006D
:1017B400832B89006FF0DFD2938A0A016FF0DFC3B5
:1017C40093D6264093071000B397D7003365F500EE
:1017D4002322A9006FF05FE5B3855B01B305B04038
:1017E4009395450113DA450193050A001385090011
:1017F400EF00005A9307F0FFE318F5C8130A00003E
:101804006FF01FC9032C81009307100023A2FB0073
:1018140013850900EF008012032A8101832A410104
:10182400032B0101832BC100832C41006FF01FB4F3
:101834009306400563ECE60613D7C7001306F706C4
:10184400131636009306E7066FF05FDB13074015A7
:10185400636CF70693D7F40093858707138877079B
:10186400139635006FF09F9A138C81EB03270C00BD
:101874003387EA002320EC006FF09FBB0324890028
:10188400832744006FF0DFC993174501E39207BA39
:10189400832B8900B3075B0193E7170023A2FB00A6
:1018A4006FF05FC423A071D56FF01FBA9306401583
:1018B40063E4E60413D7F70013068707131636000C
:1018C400930677076FF09FD3130740556364F704BB
:1018D40093D724019385D7071388C7071396350038
:1018E4006FF0DF92938C8CFFB38A9A01B38A7A41AA
:1018F400130A00006FF0DFB99306405563E4E60273
:1019040013D727011306D707131636009306C70704
:101914006FF0DFCE1306803F9305F0071308E0074E
:101924006FF0DF8E1306803F9306E0076FF01FCD44
:10193400832749006FF01FE4678000006780000080
:10194400130101FF232611002320210163880502CE
:1019540023248100232291001384050093040500AD
:101964006306050083274503638C070C8317C400B3
:101974006392070203248100832441008320C10071
:1019840013090000130509000329010013010101D3
:10199400678000009305040013850400EF00800BAA
:1019A4008327C40213090500638A07008325C40141
:1019B40013850400E7800700634405068357C400C9
:1019C40093F707086396070683250403638C0500D1
:1019D400930704046386F50013850400EFF04FC6F3
:1019E4002328040283254404638805001385040026
:1019F400EFF00FC523220404EFE05FB923160400BF
:101A0400EFE01FB98320C100032481008324410037
:101A14001305090003290100130101016780000077
:101A24008357C4001309F0FF93F70708E38E07F800
:101A34008325040113850400EFF08FC06FF0DFF8F5
:101A4400EFE09FB26FF09FF29305050003A5C1D3A9
:101A54006FF01FEF0397C500130101FE232C8100D3
:101A640023263101232E1100937787001384050068
:101A74009309050063900712B71700009387078046
:101A840083A64500B367F7002396F500635AD01880
:101A9400032884026304080E232A91009316370155
:101AA40083A4090023A0090063C806188325C40180
:101AB400130600009306100013850900E7000800D0
:101AC4009307F0FF13060500630AF51A8317C40091
:101AD4000328840293F74700638E0700032744001A
:101AE400832704033306E640638607008327C40381
:101AF4003306F6408325C4019306000013850900CC
:101B0400E70008001307F0FF8317C400631AE51207
:101B140083A609001307D0016360D7183707402054
:101B2400130717003357D7001377170063060716F8
:101B34000326040137F7FFFF1307F77F33F7E700A6
:101B44002316E400232204002320C4001397370142
:101B540063540700638806108325040323A09900B7
:101B6400638A0510930704046386F500138509004E
:101B7400EFF00FAD83244101232804028320C10127
:101B8400032481018329C10013050000130101020C
:101B9400678000002328210103A90501630A0908BD
:101BA400232A910083A405001377370023A025017D
:101BB400B3842441930700006314070083A74501FD
:101BC4002324F400634890006F0040063309A90001
:101BD400635E9004832744028325C4019386040032
:101BE4001306090013850900E7800700B384A440A5
:101BF400E34EA0FC8317C4000329010193E7070403
:101C04008320C1012316F4000324810183244101AC
:101C14008329C1001305F0FF13010102678000004E
:101C240083A6C503E346D0E66FF05FF58324410144
:101C3400032901016FF09FF4032604056FF09FE967
:101C44008326040137F7FFFF1307F77F33F7E70015
:101C54002316E400232204002320D4001397370121
:101C6400E35C07EE832504032328A40423A099003E
:101C7400E39A05EE832441016FF05FF083A7090026
:101C8400E38607E41307D001638CE70013076001C0
:101C94006388E7008317C40093E707046FF05FF6D7
:101CA40023A09900832441016FF05FED130101FE2D
:101CB400232C8100232E1100130405006306050064
:101CC40083274503638A07028397C500639C070043
:101CD4008320C101032481011305000013010102C3
:101CE4006780000013050400032481018320C101DF
:101CF400130101026FF01FD62326B100EFE0DF8647
:101D04008325C1006FF05FFC6300050693050500A1
:101D140003A5C1D36306050083274503638C07002D
:101D24008397C500639607001305000067800000D1
:101D34006FF05FD2130101FE2326B1002324A1001A
:101D4400232E1100EFE05F828325C100032581006B
:101D54008397C500639807028320C101130500001F
:101D6400130101026780000037360100B725010026
:101D7400373501001306060F938505CB13050510AF
:101D84006FE05F848320C101130101026FF09FCCD7
:101D9400130101FF23248100232291001304050071
:101DA400138505002326110023A601D4EF00002388
:101DB4009307F0FF630CF5008320C1000324810026
:101DC40083244100130101016780000083A7C1D46B
:101DD400E38407FE8320C1002320F4000324810050
:101DE400832441001301010167800000130101FFF6
:101DF40023248100B7370100373401001304040F92
:101E04009387C70E3304F440232291002326110044
:101E140093542440638004021304C4FF3304F40085
:101E2400832704009384F4FF1304C4FFE7800700AE
:101E3400E39804FE8320C10003248100832441002D
:101E4400130101016780000083A701D5638C070497
:101E540003A747001308F0016340E808131827009C
:101E640063060502338307012324C30883A8871864
:101E7400130610003316E600B3E8C80023A41719AC
:101E84002324D310930620006306D50213071700FA
:101E940023A2E700B387070123A4B70013050000BA
:101EA40067800000138801EE23A801D5938701EE13
:101EB4006FF01FFA83A6C7181307170023A2E700C1
:101EC400B3E6C60023A6D718B387070123A4B70037
:101ED40013050000678000001305F0FF6780000011
:101EE400130101FF2326110023248100930890038A
:101EF4007300000013040500634C05008320C10037
:101F0400130504000324810013010101678000000C
:101F140033048040EF004018232085001304F0FFB1
:101F24006FF0DFFD9308D0057300000063440500E3
:101F34006F000000130101FF232481001304050036
:101F44002326110033048040EF0000152320850070
:101F54006F000000130101FF2326110023248100D8
:101F64009308E0037300000013040500634C0500AC
:101F74008320C1001305040003248100130101011F
:101F84006780000033048040EF00001123208500A7
:101F94001304F0FF6FF0DFFD130101FF232611008E
:101FA400232481009308F003730000001304050048
:101FB400634C05008320C100130504000324810041
:101FC400130101016780000033048040EF00C00C5E
:101FD400232085001304F0FF6FF0DFFD03A701D673
:101FE400130101FF23261100930705006310070264
:101FF4009308600D13050000730000001306F0FF42
:1020040013070500630AC50223A0A1D63385E700A0
:102014009308600D7300000003A701D6B387E7009F
:10202400631CF5008320C10023A0A1D6130507007B
:102034001301010167800000EF0000068320C10046
:102044009307C0002320F5001305F0FF13010101DD
:1020540067800000130101FF23261100232481005F
:10206400930800047300000013040500634C05008A
:102074008320C1001305040003248100130101011E
:102084006780000033048040EF00000123208500B6
:102094001304F0FF6FF0DFFD03A5C1D367800000D8
:1020A4001000000000000000037A5200017C0101CE
:1020B4001B0C02002400000018000000F0E0FFFFE9
:1020C400B000000000440E304881018802440C082E
:1020D400000294C144C80C0230440E000000000009
:0830E400E00001009001010071
:0430EC004C01010092
:1030F0000000000003000000703601000000000026
:103100000000000070360100D83601004037010091
:1031100000000000000000000000000000000000AF
:10312000000000000000000000000000000000009F
:10313000000000000000000000000000000000008F
:10314000000000000000000000000000000000007F
:10315000000000000000000000000000000000006F
:10316000000000000000000000000000000000005F
:10317000000000000000000000000000000000004F
:10318000000000000000000000000000000000003F
:10319000000000000000000001000000000000002E
:1031A0000E33CDAB34126DE6ECDE05000B000000F3
:1031B000000000000000000000000000000000000F
:1031C00000000000000000000000000000000000FF
:1031D00000000000000000000000000000000000EF
:1031E00000000000000000000000000000000000DF
:1031F00000000000000000000000000000000000CF
:1032000000000000000000000000000000000000BE
:1032100000000000000000000000000000000000AE
:1032200000000000000000002032010020320100F8
:103230002832010028320100303201003032010012
:1032400038320100383201004032010040320100C2
:103250004832010048320100503201005032010072
:103260005832010058320100603201006032010022
:1032700068320100683201007032010070320100D2
:103280007832010078320100803201008032010082
:103290008832010088320100903201009032010032
:1032A0009832010098320100A0320100A0320100E2
:1032B000A8320100A8320100B0320100B032010092
:1032C000B8320100B8320100C0320100C032010042
:1032D000C8320100C8320100D0320100D0320100F2
:1032E000D8320100D8320100E0320100E0320100A2
:1032F000E8320100E8320100F0320100F032010052
:10330000F8320100F83201000033010000330100FF
:1033100008330100083301001033010010330100AD
:10332000183301001833010020330100203301005D
:10333000283301002833010030330100303301000D
:1033400038330100383301004033010040330100BD
:10335000483301004833010050330100503301006D
:10336000583301005833010060330100603301001D
:1033700068330100683301007033010070330100CD
:10338000783301007833010080330100803301007D
:10339000883301008833010090330100903301002D
:1033A0009833010098330100A0330100A0330100DD
:1033B000A8330100A8330100B0330100B03301008D
:1033C000B8330100B8330100C0330100C03301003D
:1033D000C8330100C8330100D0330100D0330100ED
:1033E000D8330100D8330100E0330100E03301009D
:1033F000E8330100E8330100F0330100F03301004D
:10340000F8330100F83301000034010000340100FA
:1034100008340100083401001034010010340100A8
:103420001834010018340100203401002034010058
:103430002834010028340100303401003034010008
:1034400038340100383401004034010040340100B8
:103450004834010048340100503401005034010068
:103460005834010058340100603401006034010018
:1034700068340100683401007034010070340100C8
:103480007834010078340100803401008034010078
:103490008834010088340100903401009034010028
:1034A0009834010098340100A0340100A0340100D8
:1034B000A8340100A8340100B0340100B034010088
:1034C000B8340100B8340100C0340100C034010038
:1034D000C8340100C8340100D0340100D0340100E8
:1034E000D8340100D8340100E0340100E034010098
:1034F000E8340100E8340100F0340100F034010048
:10350000F8340100F83401000035010000350100F5
:1035100008350100083501001035010010350100A3
:103520001835010018350100203501002035010053
:103530002835010028350100303501003035010003
:1035400038350100383501004035010040350100B3
:103550004835010048350100503501005035010063
:103560005835010058350100603501006035010013
:1035700068350100683501007035010070350100C3
:103580007835010078350100803501008035010073
:103590008835010088350100903501009035010023
:1035A0009835010098350100A0350100A0350100D3
:1035B000A8350100A8350100B0350100B035010083
:1035C000B8350100B8350100C0350100C035010033
:1035D000C8350100C8350100D0350100D0350100E3
:1035E000D8350100D8350100E0350100E035010093
:1035F000E8350100E8350100F0350100F035010043
:10360000F8350100F83501000036010000360100F0
:10361000083601000836010010360100103601009E
:08362000183601001836010004
:103628000000000000310100FFFFFFFF0000020062
:04000003100000F8F1
:00000001FF
